:020000040800F2
:10000000080600209D010008411700089B13000806
:10001000A5160008A9020008191D0008000000002C
:100020000000000000000000000000002D18000883
:10003000AB020008000000002B1800082F18000871
:10004000B7010008B7010008B7010008B7010008B0
:10005000B7010008B7010008B7010008B7010008A0
:10006000B7010008B7010008B7010008B701000890
:10007000B7010008B7010008B7010008B701000880
:10008000B7010008B7010008B7010008B701000870
:10009000B7010008B7010008B7010008B701000860
:1000A000B7010008B7010008B7010008B701000850
:1000B000B7010008B7010008B7010008B701000840
:1000C000B7010008B7010008B7010008B701000830
:1000D000B7010008B7010008B7010008B701000820
:1000E000B7010008B7010008B7010008B701000810
:1000F000B7010008B7010008B7010008B701000800
:10010000B7010008B7010008B7010008B7010008EF
:10011000B7010008B7010008B7010008B7010008DF
:10012000B7010008B7010008B7010008B7010008CF
:10013000B7010008B7010008B7010008B7010008BF
:10014000B7010008B7010008B7010008B7010008AF
:10015000B7010008B7010008B7010008B70100089F
:10016000B7010008B7010008B7010008B70100088F
:10017000B7010008B7010008B7010008000000003F
:10018000B7010008B7010008DFF80CD000F07AF8DA
:1001900000480047751D00080806002006488047F3
:1001A00006480047FEE7FEE7FEE7FEE7FEE7FEE75C
:1001B000FEE7FEE7FEE7FEE7C51800088901000834
:1001C0002DE9F05F0546002092469B46884606468C
:1001D000814640241BE0284641464746224600F01F
:1001E00041F853465A46C01A914110D31146184659
:1001F000224600F028F82D1A67EB01084F462246E8
:100200000120002100F01FF817EB00094E41201ECD
:10021000A4F10104DFDC484631462A464346BDE8E6
:10022000F09FD2B201E000F8012B491EFBD27047CB
:100230000022F6E710B513460A4604461946FFF7B2
:10024000F0FF204610BD202A04DB203A00FA02F11C
:10025000002070479140C2F1200320FA03F31943B4
:1002600090407047202A04DB203A21FA02F0002156
:10027000704721FA02F3D040C2F1200291400843B6
:1002800019467047064C074D06E0E06840F0010350
:1002900094E8070098471034AC42F6D3FFF778FF94
:1002A000841E0008A41E0008FEE77047006800686E
:1002B000406A80B2704700683C2100F0F1BD72B620
:1002C000FEE7000070B5044600F00AF90546601C20
:1002D00002D004480078044400F002F9401BA04218
:1002E000FAD370BD000000202DE9F84FDFF8B8A167
:1002F000002201250AF1040B03264FF00F090BF130
:10030000040E00BF0B6805FA02F42340A3426FD12C
:100310000F7907F00307012F01D0022F16D187684C
:100320004FEA420806FA08FC27EA0C07D1F80CC08D
:100330000CFA08FC4CEA070CC0F808C04768A74351
:100340000C79C4F3001494403C4344600C79E443BA
:10035000A4070AD0C4684FEA420C06FA0CF7BC4363
:100360008F6807FA0CF72743C7600C7904F0030481
:10037000022C12D1D40800EB840CDCF82040570783
:10038000FF0E09FA07F824EA0804D1F8108008FAE9
:1003900007F848EA0408CCF8208004684FEA420CC9
:1003A00006FA0CF7BC430F7907F0030707FA0CF7BE
:1003B000274307604C68E40070D53C4C276847F43D
:1003C00080472760246822F0030704F480440094E7
:1003D000374C07EB040CDCF8084897074FEA17780E
:1003E00009FA08F7BC43334FB84202D1002724E092
:1003F00054E0314FB84201D101271EE02F4FB842DF
:1004000001D1022719E02E4FB84201D1032714E091
:100410002C4FB84201D104270FE02B4FB84201D135
:1004200005270AE0294FB84201D1062705E0284FE9
:10043000B84201D1072700E0082707FA08F7274349
:10044000CCF80878DAF800405746D1F804C09C434D
:100450005FEACC3C00D51C433C60DBF800405F46C3
:10046000D1F804C09C435FEA8C3C00D51C433C603F
:10047000DEF800407746D1F804C09C435FEACC2CFC
:1004800000D51C433C60084F0C373C68D1F804C0D1
:100490009C435FEA8C2C00D51C433C60521C102A04
:1004A000FFF430AFBDE8F88F003C01404438024013
:1004B00000300140000002400004024000080240F9
:1004C000000C0240001002400014024000180240DC
:1004D000001C02400AB1816170470904FBE700007B
:1004E00001488068704700000000002002488168D1
:1004F0000278114481607047000000200B4810B55D
:10050000016841F400710160016841F4806101609B
:10051000016841F480710160032000F061F800205F
:1005200000F006F800F024F8002010BD003C024066
:1005300070B50D4D04464FF47A712878B1FBF0F098
:100540000A490968B1FBF0F000F0FCFA48B9102C38
:1005500007D200222146501E00F022F800206C60D5
:1005600070BD012070BD0000000000200C000020C4
:100570000A4808B5016841F480410160006800F450
:10058000804000900548001F016841F080510160E3
:10059000006800F08050009008BD00004438024020
:1005A000F0B40E4B1B680C46C3F30223C3F10705DE
:1005B000042D00D90425191D072901D2002300E0CC
:1005C000DB1E012606FA05F1491E214099409E4096
:1005D000761E16403143F0BC01F09FBB0CED00E0ED
:1005E000064900F0070208684FF6FF03184040EA8A
:1005F0000220034A10430860704700000CED00E041
:100600000000FA052DE9F0470E46050065D0DFF839
:100610001481D8F80000F7B200F00700B04207D20A
:1006200088F80070D8F8000000F00700B04254D1FC
:1006300028683D4C810712D5400703D5206840F457
:10064000E05020602878000703D5206840F460401F
:1006500020602068A96820F0F00008432060287816
:10066000C0072DD0304968680839012812D0022807
:1006700013D0032811D00968890700292DDA2168D1
:1006800021F0030101432160FFF72AFF814641F277
:10069000883A0EE009688903EFE709688901ECE709
:1006A000FFF71EFFA0EB0901514502D90320BDE869
:1006B000F0872068696800F00C00B0EB810FEFD183
:1006C000D8F80010404601F00701B14207D9077081
:1006D000006800F00700B04201D00120E7E7287869
:1006E000400705D52068E96820F4E0500843206001
:1006F0002878000706D52068296920F4604040EA80
:10070000C100206000F038F82168084AC1F30311E5
:10071000515CC8400649086006480068FFF708FFBA
:100720000020C4E7003C024008380240581E000880
:100730000C000020040000200448054900680968F6
:10074000044AC1F38221515CC84070470C0000206C
:1007500008380240681E0008044805490068096816
:10076000044AC1F34231515CC84070470C0000207C
:1007700008380240681E0008154810B5006810F0DF
:100780000C02144813D04110042A0FD0082A0ED1AD
:100790000F4C241F2268236802F03F025B0207D53A
:1007A0002068C0F38810A0FB010106E0084610BDD8
:1007B0002168C1F38811A1FB00010023FFF700FDB0
:1007C0002168C1F30141491C4900B0FBF1F010BDA3
:1007D000083802400024F4002DE9F84F04006ED0E0
:1007E0002078DFF84C93C007A9F104054AD009F13D
:1007F00004000168C1F38101012908D00068C0F339
:10080000810002280AD1D9F80000400206D52868E4
:10081000800337D560680028E1D033E06068B0F528
:10082000803F10D0B0F5A02F286810D020F4803081
:100830002860286820F4802028606068A8B1FFF74D
:100840004FFE06460DE0286840F48030F4E740F49F
:1008500080202860F7E700BFFFF742FE801B642876
:1008600073D828688003F7D50CE0FFF739FE0646F9
:1008700005E000BFFFF734FE801B6428F0D828682D
:100880008003F7D42078DFF8AC8280074FF0000AAD
:100890003ED5A748001D016811F00C0F08D0006874
:1008A000C0F3810002280BD1D9F80000400207D420
:1008B0002868800716D5E068012800D112E033E1EE
:1008C000E068B8B10120C8F80000FFF709FE06464D
:1008D00005E000BFFFF704FE801B0228C0D828688F
:1008E0008007F7D52868216920F0F80040EAC100A8
:1008F00028600DE0C8F800A0FFF7F2FD064604E00E
:10090000FFF7EEFD801B02281FD828688007F7D468
:100910002078000722D5864F87486169703771B10A
:1009200001210160FFF7DCFD064604E0FFF7D8FD7A
:10093000801B022809D838688007F7D50EE0C0F878
:1009400000A0FFF7CDFD064605E082E0FFF7C8FDF9
:10095000801B02287DD838688007F7D420784007AC
:1009600068D5DFF8CCB100270BF13C0BDBF80000B9
:10097000C0000BD4DBF8001041F08051CBF8001020
:10098000DBF80000012700F0805000906B4E3068CB
:10099000C00510D4306840F480703060FFF7A0FDCF
:1009A000009005E0FFF79CFD0099401A022850D8FE
:1009B0003068C005F6D55E4EA0686C3601280FD0B1
:1009C0000528306810D020F001003060306820F039
:1009D00004003060A068B8B1FFF782FD00900FE01E
:1009E000306840F00100F4E740F004003060F7E7C1
:1009F000FFF776FD0099411A41F28830814266D8AE
:100A000030688007F4D50EE0FFF76AFD009007E03C
:100A1000FFF766FD0099411A41F28830814256D8AD
:100A200030688007F4D42FB1DBF8001021F080513A
:100A3000CBF80010A069C8B33D49091D0968C1F38E
:100A4000810102294AD00228504607D0C8F8600028
:100A500000E03CE0FFF744FD04463BE04746C8F8B1
:100A60006000FFF73DFD064605E000BFFFF738FDDB
:100A7000801B02282BD828688001F7D4D4E907010D
:100A80000843A16A2E4A490802EB0141626A41EA21
:100A90008211084394F82C1040EA0161C9F8001053
:100AA00001203866FFF71CFD044606E03EE000BF6B
:100AB000FFF716FD001B022809D828688001F7D52A
:100AC00034E000BFFFF70CFD001B022802D9032011
:100AD000BDE8F88F28688001F4D427E00128F7D01A
:100AE000D9F80000E26900F4800191421CD1226A29
:100AF00000F03F01914217D147F6C071626A014090
:100B0000B1EB821F10D1A26A4FF0FF3300F44031E5
:100B100003EB5202B1EB024F06D194F82C1000F017
:100B20007060B0EB016F01D00120D1E70020CFE76A
:100B30000438024000004742800E474200700040E7
:100B40000000FFFF10B5401EB0F1807F01D30120EF
:100B500010BD4FF0E02460610F21601701F0DDF857
:100B60000020A06107202061002010BD70B590F822
:100B70003C20012A32D0012480F83C40022280F837
:100B80003D2003685A689D6822F070060A68324367
:100B90005A60134B02689A4214D0B2F1804F11D0C0
:100BA000104B9A420ED0104B9A420BD00F4B9A42E8
:100BB00008D00F4B9A4205D00E4B9A4202D00E4BF2
:100BC0009A4204D1496825F080031943916080F866
:100BD0003D40002180F83C10084670BD022070BDE9
:100BE000000001400004004000080040000C0040EC
:100BF00000040140004001400018004010B504000E
:100C000003D094F83D0010B107E0012010BD002092
:100C100084F83C00204600F01FF8022084F83D00D4
:100C2000211D206800F056FE012084F8460084F85B
:100C30003E0084F83F0084F8400084F8410084F8C6
:100C4000420084F8430084F8440084F8450084F8A6
:100C50003D00002010BD000008B50068064988422C
:100C600008D10648016841F008010160006800F001
:100C70000800009008BD0000000C00404038024011
:100C800070B5044690F83C00012817D0012584F87F
:100C90003C50022084F83D002068826822F07702F0
:100CA00022F47F4282600868502830D00DDC202872
:100CB0004DD005DC98B310283BD148E0022070BD30
:100CC000302844D0402834D139E0602828D070281A
:100CD00006D0B0F5805F2CD0B0F5005F29D10AE0D6
:100CE000CB68D1E90121206800F065FE20688168A9
:100CF00041F0770109E0CB68D1E90121206800F0DB
:100D00005AFE2068816841F48041816011E0CA6820
:100D10004968206800F024FF5021206807E016E0B1
:100D2000CA684968206800F02CFF6021206800F044
:100D30004CFE84F83D50002084F83C0070BDCA6829
:100D40004968206800F00CFF40212068EFE7226826
:100D500001461046EBE72DE9F0410D46040003D0B3
:100D600094F83D0018B108E00120BDE8F0810020B2
:100D700084F83C00204600F041F8022084F83D0051
:100D80002068816844F2070291438160211D206838
:100D900000F0A0FD226890689169166A2B68AF691F
:100DA000034340F20330814341EA0721A868EF6919
:100DB00008434FF6FC418843E96840EA07200143B5
:100DC00028692F6A000140EA0730084369686D69A5
:100DD00026F0AA0646EA0515294393602268906129
:100DE00054F8460B0162012004F81F09E0752076D3
:100DF000E0762077A0750020B7E7000030B587B017
:100E0000044614216846FFF713FA214824681F4D51
:100E100000221F4910380223AC4216D10C6844F05E
:100E200002040C60096801F002010591016841F0BB
:100E3000010101600068694600F001000590C020D2
:100E40000090CDE90132134819E0134DAC421AD19C
:100E50000C6844F004040C60096801F00401059179
:100E6000016841F0080101600068694600F008006F
:100E700005904FF440500090CDE901320748CDE98C
:100E80000323FFF731FA07B030BD00000004004033
:100E9000403802400000024000080040000C0240C0
:100EA00070B590F83E60044690F83F5090F842309C
:100EB00090F84320022021B104290ED0012E1BD12D
:100EC00014E0012E18D1012B16D184F83E0084F8CD
:100ED000420001220021206820E0012D0CD1012ACE
:100EE0000AD184F83F0084F8430014E0012D03D1B7
:100EF000012B01D1012A01D0012070BD84F83E00F0
:100F000084F83F0084F8420084F843000122002165
:100F1000206800F043FD01220421206800F03EFD1E
:100F20002068016841F001010160002070BD0000EF
:100F300010B586B0044614216846FFF779F90D49CB
:100F40002068884214D10C480021026842F0010256
:100F500002600068012200F001000590022000906C
:100F6000CDE90102CDE9031069460448FFF7BCF959
:100F700006B010BD000C00403038024000000240B6
:100F800070B5044690F83C000D4601280AD00120B7
:100F900084F83C0042B1042A18D0082A2AD00C2A2E
:100FA0004DD139E0022070BD206800F017FD2068A7
:100FB000816941F0080181612068816921F00401A3
:100FC0008161206881692A69114311E0206800F07D
:100FD00035FD2068816941F4006181612068816983
:100FE00021F480618161206881692A6941EA0221D6
:100FF000816124E0206800F057FD2068C16941F05C
:101000000801C1612068C16921F00401C161206843
:10101000C1692A69114311E0206800F079FD206858
:10102000C16941F40061C1612068C16921F4806136
:10103000C1612068C1692A6941EA0221C1610020B9
:1010400084F83C0070BD10B5040003D094F83D0056
:1010500010B107E0012010BD002084F83C002046BC
:1010600000F01EF8022084F83D00211D206800F0E9
:1010700031FC012084F8460084F83E0084F83F00EB
:1010800084F8400084F8410084F8420084F843006A
:1010900084F8440084F8450084F83D00002010BD29
:1010A0007047000010B50446022249B104290ED051
:1010B000082913D094F84100012816D0012010BD52
:1010C00094F83E000128F9D184F83E200FE094F80E
:1010D0003F000128F2D184F83F2008E094F8400056
:1010E0000128EBD184F8402001E084F8412001225E
:1010F000206800F053FC16492068164A884201D047
:10110000904203D1436C43F4004343642068884217
:1011100013D0B0F1804F10D00F4988420DD00F4945
:1011200088420AD00E49884207D0904205D00D4926
:10113000884202D00C49884204D1816801F007013D
:10114000062903D0016841F001010160002010BDB3
:10115000000001400004014000040040000800407D
:10116000000C0040004001400018004030B504462B
:101170000D460068002200F011FC194B41F21111DC
:1011800020688A10984202D0164B984209D1036A0F
:101190000B4206D1036A134203D1436C23F400438C
:1011A00043642068036A0B4206D1016A114203D1ED
:1011B000016821F00101016001203DB1042D08D03A
:1011C000082D09D084F84100002030BD84F83E008D
:1011D000FAE784F83F00F7E784F84000F4E70000FE
:1011E000000001400004014070B5040004D094F8F0
:1011F0003D00002510B106E0012070BD84F83C5090
:10120000204600F023F8242084F83D002068C168BF
:1012100021F40051C160204600F0C6FC206801693D
:1012200021F4904101612068416921F02A01416166
:101230002068C16841F40051C1602564202084F811
:101240003D0084F83E00002070BD0000F0B587B07E
:10125000044614216846FEF7EBFF1F4F2368002267
:101260001E490224032507261D48BB4213D11B4BF0
:1012700014331F6847F010071F601B6803F010034A
:1012800005930B6843F001030B60096801F001014D
:101290000591690215E0134FBB421AD10F4B103371
:1012A0001F6847F400371F601B6803F40033059381
:1012B0000B6843F001030B60096801F0010105911F
:1012C0000C21CDE9001402AB694683E86400FFF706
:1012D0000BF807B0F0BD00000010014030380240AC
:1012E00000000240004400402DE9F843044690F815
:1012F0003D001F4616460D4620284CD1C5B1BEB153
:1013000094F83C00012846D0012084F83C004FF0BE
:101310000008C4F84080212084F83D00FFF7E0F881
:10132000A6848146E684A068B0F5805F03D004E01F
:101330000120BDE8F883206928B12E465FF0000542
:1013400084F83C800EE00026FAE78021204600F079
:10135000B1FCA0B9AEB116F8010B21684860E08C71
:10136000401EE084E08C4B464FF0000200970028BE
:10137000EBD14FF04001204600F09CFC30B103203F
:10138000D7E735F8020BC0F30800E6E7202084F821
:101390003D000020CDE70220CBE7FEE72DE9F0413C
:1013A000264BAA2500261D70FF255D7098703746D4
:1013B00034460420354617E011F825C0BCF1000F73
:1013C00006D0BCF1010F14D0BCF1020F0AD110E01D
:1013D00001EB850C641C9CF802C0E4B203F800C069
:1013E000401CC0B26D1CEDB29542E5D3DC7000210B
:1013F00015E001EB850EA41C9EF802C003F800C0A6
:10140000BEF802C0401CE4B2C0B24FEA1C2CE5E7B3
:101410005A5C3244D6B2BA19491CD7B2C9B2814219
:10142000F6D31E54401CC0B204491F54BDE8F0411D
:10143000401CC2B20A230248FFF756BF78010020C1
:10144000F000002030B587B014216846FEF7F0FEAA
:1014500019480024016841F080010160016801F031
:1014600080010591016841F004010160016801F00B
:1014700004010591016841F001010160016801F07A
:1014800001010591016841F00801016000680B4D00
:1014900000F00800059000220C212846FFF71AF8FA
:1014A00001210C20CDE90214CDE90001694628464E
:1014B000FEF71AFF07B030BD303802400008024086
:1014C00010B58CB024216846FEF7B2FE0024164801
:1014D000099414490A94C0E9001440F65F11C0E968
:1014E0000241046184610320CDE900040120CDE9BB
:1014F00002040494CDE90540079469460A4808941B
:10150000FFF729FC08B1FEF7DAFE099409A906489D
:101510000A94FFF72BFB002801D0FEF7D0FE0CB099
:1015200010BD0000000400401800002010B58CB071
:1015300024216846FEF77CFE0024164809941449CD
:101540000A94C0E9001449F63F41C0E90241046130
:1015500084610320CDE900040120CDE90204049454
:10156000CDE90540079469460A480894FFF7F3FB64
:1015700008B1FEF7A4FE099409A906480A94FFF7EA
:10158000F5FA002801D0FEF79AFE0CB010BD00005D
:10159000000800406000002010B58EB000240794C1
:1015A000089409940A940B941C2168460C94FEF745
:1015B0003FFE1F481D4901605321C0E9011442F25A
:1015C0001071C0E9031480218161FFF717FB08B196
:1015D000FEF775FE4FF48050079007A91448FFF7F7
:1015E0004FFB08B1FEF76BFE1148FFF72CFD08B169
:1015F000FEF765FE0B940BA90D480C94FFF7B6FAA5
:1016000008B1FEF75CFE6020CDE9000402940422DC
:10161000694607480494FFF7B3FC08B1FEF74FFE94
:101620000348FFF785FC0EB010BD0000000C004021
:10163000A80000200C4810B50A4901604FF4E131C0
:101640004160002181600C22C160C0E90412816107
:10165000C161FFF7C9FD002803D0BDE81040FEF7C7
:101660002EBE10BD00100140F00000200C4810B547
:101670000A4901604FF4E1314160002181600C2290
:10168000C160C0E904128161C161FFF7ADFD0028AE
:1016900003D0BDE81040FEF712BE10BD004400406C
:1016A00034010020FEE770B504460D00C068218AB1
:1016B00009D40122FEF70EFF618A0022E068FEF7DE
:1016C00009FFA8B209E00022FEF704FF618A0122A7
:1016D000E068FEF7FFFE684280B2A168814200D256
:1016E0000846616880B239B1042909D00829216807
:1016F000096809D0086470BD21680968486370BD35
:1017000021680968886370BDC86370BD10B5044660
:101710000029D4E90002114607D0FFF7C3FC218A53
:10172000608A01430122E06806E0FFF71FFD218A7D
:10173000608A0143E0680022BDE81040FEF7CABE9F
:10174000FEE708444A0090FBF2F302FB1300401A44
:10175000704700218184C1840185C1830184418453
:10176000704710B504468069E1680068401AA18B93
:10177000FFF7E7FFA084A069B4F926100068401ABB
:10178000A18BFFF7DEFF00EE100AD4ED020AB8EEDF
:10179000C00A20EE200ABDEEC00A10EE100A6084D6
:1017A000A0690088E084B4F92400D4ED000A00EEBA
:1017B000100A0028B8EEC00A20EE800ABDEEC00A6A
:1017C00010EE101AE18301DB014600E04142B4F95A
:1017D0001020914203DD002A01DD002011E0B4F960
:1017E000201094ED011A00EE101AF8EEC00A00EE77
:1017F000100AB8EEC00A41EE000ABDEEE00A10EE93
:10180000100A2084B4F9121000B200F0A5FA208466
:10181000E18B0844618C084400B22085B4F91410AF
:1018200000F09AFA00B2208510BD70477047FEF7AD
:101830005DBE000030B593B030216846FEF7F8FC7D
:1018400014210CA8FEF7F4FC1C480024016841F0A8
:1018500080510160006800F08050119018480168C4
:1018600041F4804101600068022500F4804011903D
:101870000120039010200490009506950820CDE9E2
:1018800007405420CDE9090504200B906846FEF777
:10189000A3FF08B172B6FEE70F20CDE90C054FF4A7
:1018A0008050CDE90E4002210CA81094FEF7AAFE4C
:1018B000002801D072B6FEE713B030BD40380240B8
:1018C000007000400248016841F4700101607047F7
:1018D00088ED00E0F0B50268254C264D264E274FD6
:1018E000274B4FF0804CA04209D0604507D0A8425A
:1018F00005D0B04203D0B84201D0984204D122F0C2
:10190000700E4A6842EA0E02A0421BD0604519D010
:10191000A84217D0B04215D0B84213D0984211D087
:10192000184DA8420ED0184DA8420BD0174DA84212
:1019300008D0174DA84205D0164DA84202D0164D2A
:10194000A84203D122F44075CA682A434D6922F0A7
:1019500080022A4302608A68C2620A688262A042E8
:1019600001D0984201D10969016301214161F0BDB3
:10197000000001400004004000080040000C00404E
:101980000004014000400140004401400048014083
:1019900000180040001C00400020004010B501F07D
:1019A0001F030121046A99408C430462016A9A4032
:1019B0001143016210BD10B5846842EA032224F489
:1019C0007F440A432243826010BD826822F0700285
:1019D0000A4342F00701816070470000F0B5026AD7
:1019E00022F001020262036A42688469124E24F006
:1019F00073050C682C4323F002058B682B430D4DB7
:101A0000A84201D0B04205D123F00807CB683B4380
:101A100023F00403A84201D0B04205D14D6922F45D
:101A2000407215438A692A43426084614968416370
:101A30000362F0BD0000014000040140F0B5026AFD
:101A400022F010020262026A436884690D6824F47D
:101A5000E64444EA05248D6822F0200242EA051299
:101A60000F4D104EA84201D0B04206D1CF6822F0EF
:101A7000800242EA071222F04002A84201D0B0429E
:101A800007D14D6923F4406343EA85038D6943EA36
:101A9000850343608461496881630262F0BD000090
:101AA0000000014000040140F0B5026A22F4807297
:101AB0000262026A4368C46922F4007224F073056A
:101AC0000C68124E2C438D6842EA05220E4DA84246
:101AD00001D0B04206D1CF6822F4006242EA072268
:101AE00022F48062A84201D0B04207D14D6923F4AC
:101AF000405343EA05138D6943EA05134360C4610B
:101B00004968C1630262F0BD000001400004014069
:101B100030B5026A22F480520262046A4268C369E4
:101B20000D6823F4E64343EA05238D6824F400544A
:101B300044EA0534084DA84202D0084DA84204D119
:101B40004D6922F4804242EA85124260C3614968CD
:101B50000164046230BD0000000001400004014047
:101B600010B5036A046A24F001040462846924F055
:101B7000F00444EA021423F00A020A438461026278
:101B800010BD10B5036A23F0100303628369046A71
:101B900023F4704343EA023224F0A00343EA011124
:101BA0008261016210BD000070B5044600680169E1
:101BB000E26821F44051114301612169A068E269A2
:101BC00008436169114308432168CA6849F20C63FC
:101BD0009A430243CA6020684169A26921F44071B6
:101BE0001143416131492068884202D0304988421E
:101BF00002D1FEF7B1FD01E0FEF79EFDE269002390
:101C0000192164253226B2F5004F626828D0A0FB66
:101C10000101930F9200FEF7D3FA0146B0FBF5F0F5
:101C20006FF01802504301EB800006EB0010B0FB90
:101C3000F5F000F0F002B1FBF5F002EB0012B1FBA1
:101C4000F5F06FF01803584301EB800006EB00102D
:101C5000B0FBF5F000F00F0021681044886070BD03
:101C6000A0FB010192185B41FEF7AAFA0146B0FB06
:101C7000F5F00201B1FBF5F06FF01803584301EBEA
:101C8000800006EBC000B0FBF5F000F0F80002EBBE
:101C90004002B1FBF5F0584301EB800006EBC000B9
:101CA000B0FBF5F000F00700D6E70000001001409F
:101CB000001401402DE9F041984617460E460446AF
:101CC000069D1DE0681C1BD02DB1FEF709FCA0EBA2
:101CD0000800A84214D92068C16821F4D071C160FD
:101CE0002068416921F001014161202084F83D0014
:101CF00084F83E00002084F83C000320BDE8F08119
:101D00002068006836EA000004D00020B842D9D02C
:101D10000020F3E70120F9E7FEE70907090E002894
:101D200004DB00F1E02080F80014704700F00F00A1
:101D300000F1E02080F8141D704702E008C8121F6F
:101D400008C1002AFAD170477047002001E001C1A4
:101D5000121F002AFBD17047002801DB024600E079
:101D600042428A4202DD002801DD084670474842AF
:101D7000704700001FB501208DF8000002208DF88B
:101D800004008DF80800FEF7B9FB2E4C9FED2C0ADD
:101D900041F2883084ED000A9FED2B0A84ED010AA0
:101DA0009FED2A0A84ED020AE0604FF47A702082E7
:101DB00041006182A08203A8A06125488088400874
:101DC000A0832046FFF7C5FCFFF734FDFFF73AFB81
:101DD000FFF776FBFFF7AAFBFFF7DEFBFFF72AFC16
:101DE000FFF744FC01211B48FFF790FC1848FEF761
:101DF00062FA01211748FFF756FC0A251448FEF73E
:101E000055FA03900F48FFF7ACFC90FBF5F001B2D8
:101E10001048FFF748FC0E48FEF748FAADF80200FC
:101E2000A089ADF80600208DADF80A0003226946AE
:101E3000F120FFF7B3FA0A20FEF744FADEE70000CC
:101E40006F1283BADC01002000000000ACC527B788
:101E500010000020701E00080000000000000000BC
:101E60000102030406070809000000000102030440
:101E70001800002004000000E803000000080240F1
:101E800004000800A41E0008000000201800000044
:101E90003A1D0008BC1E000818000020F0050000D4
:101EA0004A1D0008010000001000000000000000B2
:0C1EB0000024F40060000020409C0000B2
:040000050800018965
:00000001FF
